

Microchip MPLAB XC8 Assembler V2.10 build 88905656 
                                                                                               Fri May 29 13:45:38 2020

Microchip MPLAB XC8 C Compiler v2.10 (Free license) build 20190730164152 Og1 
     1                           	processor	18F458
     2                           	fnconf	rparam,??,?,0
     3                           	opt	pw 120
     4                           	opt	flic
     5                           	psect	cinit,global,reloc=2,class=CODE,delta=1
     6                           	psect	cstackCOMRAM,global,class=COMRAM,space=1,delta=1,noexec
     7                           	psect	text0,global,reloc=2,class=CODE,delta=1
     8                           	psect	intcode,global,reloc=2,class=CODE,delta=1
     9                           	psect	text2,global,reloc=2,class=CODE,delta=1
    10                           	psect	intsave_regs,global,class=BIGRAM,space=1,delta=1,noexec
    11                           	psect	rparam,global,class=COMRAM,space=1,delta=1,noexec
    12                           	psect	temp,global,ovrld,common,class=COMRAM,space=1,delta=1
    13  0000                     
    14                           ; Version 2.10
    15                           ; Generated 31/07/2019 GMT
    16                           ; 
    17                           ; Copyright © 2019, Microchip Technology Inc. and its subsidiaries ("Microchip")
    18                           ; All rights reserved.
    19                           ; 
    20                           ; This software is developed by Microchip Technology Inc. and its subsidiaries ("Microch
      +                          ip").
    21                           ; 
    22                           ; Redistribution and use in source and binary forms, with or without modification, are
    23                           ; permitted provided that the following conditions are met:
    24                           ; 
    25                           ;     1. Redistributions of source code must retain the above copyright notice, this lis
      +                          t of
    26                           ;        conditions and the following disclaimer.
    27                           ; 
    28                           ;     2. Redistributions in binary form must reproduce the above copyright notice, this 
      +                          list
    29                           ;        of conditions and the following disclaimer in the documentation and/or other
    30                           ;        materials provided with the distribution.
    31                           ; 
    32                           ;     3. Microchip's name may not be used to endorse or promote products derived from th
      +                          is
    33                           ;        software without specific prior written permission.
    34                           ; 
    35                           ; THIS SOFTWARE IS PROVIDED BY MICROCHIP "AS IS" AND ANY EXPRESS OR IMPLIED WARRANTIES,
    36                           ; INCLUDING, BUT NOT LIMITED TO, THE IMPLIED WARRANTIES OF MERCHANTABILITY AND FITNESS F
      +                          OR
    37                           ; PURPOSE ARE DISCLAIMED.  IN NO EVENT SHALL MICROCHIP BE LIABLE FOR ANY DIRECT, INDIREC
      +                          T,
    38                           ; INCIDENTAL, SPECIAL, EXEMPLARY, OR CONSEQUENTIAL DAMAGES (INCLUDING BUT NOT LIMITED TO
    39                           ; PROCUREMENT OF SUBSTITUTE GOODS OR SERVICES; LOSS OF USE, DATA OR PROFITS; OR BUSINESS
    40                           ; INTERRUPTION) HOWSOEVER CAUSED AND ON ANY THEORY OF LIABILITY, WHETHER IN CONTRACT, ST
      +                          RICT
    41                           ; LIABILITY, OR TORT (INCLUDING NEGLIGENCE OR OTHERWISE) ARISING IN ANY WAY OUT OF THE U
      +                          SE OF
    42                           ; THIS SOFTWARE, EVEN IF ADVISED OF THE POSSIBILITY OF SUCH DAMAGE.
    43                           ; 
    44                           ; 
    45                           ; Code-generator required, PIC18F458 Definitions
    46                           ; 
    47                           ; SFR Addresses
    48  0000                     _ADRESH	set	4036
    49  0000                     _PORTD	set	3971
    50  0000                     _ADRESL	set	4035
    51  0000                     _PORTC	set	3970
    52  0000                     _ADCON0bits	set	4034
    53  0000                     _INTCONbits	set	4082
    54  0000                     _PIE1bits	set	3997
    55  0000                     _ADCON1	set	4033
    56  0000                     _ADCON0	set	4034
    57  0000                     _TRISAbits	set	3986
    58  0000                     _TRISD	set	3989
    59  0000                     _TRISC	set	3988
    60  0000                     _PIR1bits	set	3998
    61                           
    62                           ; #config settings
    63  0000                     
    64                           	psect	cinit
    65  00008A                     __pcinit:
    66                           	opt callstack 0
    67  00008A                     start_initialization:
    68                           	opt callstack 0
    69  00008A                     __initialization:
    70                           	opt callstack 0
    71  00008A                     end_of_initialization:
    72                           	opt callstack 0
    73  00008A                     __end_of__initialization:
    74                           	opt callstack 0
    75  00008A  9003               	bcf	int$flags,0,c	;clear compiler interrupt flag (level 1)
    76  00008C  9203               	bcf	int$flags,1,c	;clear compiler interrupt flag (level 2)
    77  00008E  0100               	movlb	0
    78  000090  EF17  F000         	goto	_main	;jump to C main() function
    79                           
    80                           	psect	cstackCOMRAM
    81  000001                     __pcstackCOMRAM:
    82                           	opt callstack 0
    83  000001                     ??_AD_ISR:
    84  000001                     
    85                           ; 1 bytes @ 0x0
    86  000001                     	ds	2
    87  000003                     
    88                           ; 1 bytes @ 0x2
    89 ;;
    90 ;;Main: autosize = 0, tempsize = 0, incstack = 0, save=0
    91 ;;
    92 ;; *************** function _main *****************
    93 ;; Defined at:
    94 ;;		line 75 in file "main.c"
    95 ;; Parameters:    Size  Location     Type
    96 ;;		None
    97 ;; Auto vars:     Size  Location     Type
    98 ;;		None
    99 ;; Return value:  Size  Location     Type
   100 ;;                  1    wreg      void 
   101 ;; Registers used:
   102 ;;		wreg, status,2
   103 ;; Tracked objects:
   104 ;;		On entry : 0/0
   105 ;;		On exit  : 0/0
   106 ;;		Unchanged: 0/0
   107 ;; Data sizes:     COMRAM   BANK0   BANK1   BANK2   BANK3   BANK4   BANK5
   108 ;;      Params:         0       0       0       0       0       0       0
   109 ;;      Locals:         0       0       0       0       0       0       0
   110 ;;      Temps:          0       0       0       0       0       0       0
   111 ;;      Totals:         0       0       0       0       0       0       0
   112 ;;Total ram usage:        0 bytes
   113 ;; Hardware stack levels required when called:    2
   114 ;; This function calls:
   115 ;;		Nothing
   116 ;; This function is called by:
   117 ;;		Startup code after reset
   118 ;; This function uses a non-reentrant model
   119 ;;
   120                           
   121                           	psect	text0
   122  00002E                     __ptext0:
   123                           	opt callstack 0
   124  00002E                     _main:
   125                           	opt callstack 29
   126  00002E  FFFF               	dw	65535	; assembler added errata NOP
   127                           
   128                           ;main.c: 77:     TRISC =0;
   129  000030  0E00               	movlw	0
   130  000032  6E94               	movwf	148,c	;volatile
   131                           
   132                           ;main.c: 78:     TRISD = 0;
   133  000034  0E00               	movlw	0
   134  000036  6E95               	movwf	149,c	;volatile
   135  000038                     
   136                           ;main.c: 79:     TRISAbits.TRISA0 = 1;
   137  000038  8092               	bsf	146,0,c	;volatile
   138                           
   139                           ;main.c: 80:     ADCON0 = 0x81;
   140  00003A  0E81               	movlw	129
   141  00003C  6EC2               	movwf	194,c	;volatile
   142                           
   143                           ;main.c: 81:     ADCON1 = 0xCE;
   144  00003E  0ECE               	movlw	206
   145  000040  6EC1               	movwf	193,c	;volatile
   146  000042                     
   147                           ;main.c: 84:     PIR1bits.ADIF =0;
   148  000042  9C9E               	bcf	158,6,c	;volatile
   149  000044                     
   150                           ;main.c: 85:     PIE1bits.ADIE = 1;
   151  000044  8C9D               	bsf	157,6,c	;volatile
   152  000046                     
   153                           ;main.c: 86:     INTCONbits.PEIE = 1;
   154  000046  8CF2               	bsf	242,6,c	;volatile
   155  000048                     
   156                           ;main.c: 87:     INTCONbits.GIE = 1;
   157  000048  8EF2               	bsf	242,7,c	;volatile
   158  00004A                     l745:
   159  00004A  FFFF               	dw	65535	; assembler added errata NOP
   160                           
   161                           ;main.c: 90:        _delay((unsigned long)((100)*(4000000/4000000.0)));
   162  00004C  0E19               	movlw	25
   163  00004E                     u27:
   164  00004E  FFFF               	dw	65535	; errata NOP
   165  000050  2EE8               	decfsz	wreg,f,c
   166  000052  D7FD               	bra	u27
   167  000054                     
   168                           ;main.c: 91:        ADCON0bits.GO = 1;
   169  000054  84C2               	bsf	194,2,c	;volatile
   170  000056  EF25  F000         	goto	l745
   171  00005A  EF15  F000         	goto	start
   172  00005E                     __end_of_main:
   173                           	opt callstack 0
   174                           
   175 ;; *************** function _chk_isr *****************
   176 ;; Defined at:
   177 ;;		line 70 in file "main.c"
   178 ;; Parameters:    Size  Location     Type
   179 ;;		None
   180 ;; Auto vars:     Size  Location     Type
   181 ;;		None
   182 ;; Return value:  Size  Location     Type
   183 ;;                  1    wreg      void 
   184 ;; Registers used:
   185 ;;		wreg, cstack
   186 ;; Tracked objects:
   187 ;;		On entry : 0/0
   188 ;;		On exit  : 0/0
   189 ;;		Unchanged: 0/0
   190 ;; Data sizes:     COMRAM   BANK0   BANK1   BANK2   BANK3   BANK4   BANK5
   191 ;;      Params:         0       0       0       0       0       0       0
   192 ;;      Locals:         0       0       0       0       0       0       0
   193 ;;      Temps:          0       0       0       0       0       0       0
   194 ;;      Totals:         0       0       0       0       0       0       0
   195 ;;Total ram usage:        0 bytes
   196 ;; Hardware stack levels used:    1
   197 ;; Hardware stack levels required when called:    1
   198 ;; This function calls:
   199 ;;		_AD_ISR
   200 ;; This function is called by:
   201 ;;		Interrupt level 2
   202 ;; This function uses a non-reentrant model
   203 ;;
   204                           
   205                           	psect	intcode
   206  000008                     __pintcode:
   207                           	opt callstack 0
   208  000008                     _chk_isr:
   209                           	opt callstack 0
   210  000008  FFFF               	dw	65535	; assembler added errata NOP
   211                           
   212                           ;incstack = 0
   213  00000A  8203               	bsf	int$flags,1,c	;set compiler interrupt flag (level 2)
   214  00000C                     
   215                           ;main.c: 71:     if(PIR1bits.ADIF == 1)
   216  00000C  AC9E               	btfss	158,6,c	;volatile
   217  00000E  EF0B  F000         	goto	i2u1_41
   218  000012  EF0E  F000         	goto	i2u1_40
   219  000016                     i2u1_41:
   220  000016  FFFF               	dw	65535	; assembler added errata NOP
   221  000018  EF11  F000         	goto	i2l36
   222  00001C                     i2u1_40:
   223  00001C  FFFF               	dw	65535	; assembler added errata NOP
   224  00001E                     
   225                           ;main.c: 72:         AD_ISR();
   226  00001E  EC2F  F000         	call	_AD_ISR	;wreg free
   227  000022                     i2l36:
   228  000022  FFFF               	dw	65535	; assembler added errata NOP
   229  000024  9203               	bcf	int$flags,1,c	;clear compiler interrupt flag (level 2)
   230  000026  0011               	retfie		f
   231  000028  FFFF               	dw	65535	; errata NOP
   232  00002A                     __end_of_chk_isr:
   233                           	opt callstack 0
   234                           
   235 ;; *************** function _AD_ISR *****************
   236 ;; Defined at:
   237 ;;		line 96 in file "main.c"
   238 ;; Parameters:    Size  Location     Type
   239 ;;		None
   240 ;; Auto vars:     Size  Location     Type
   241 ;;		None
   242 ;; Return value:  Size  Location     Type
   243 ;;                  1    wreg      void 
   244 ;; Registers used:
   245 ;;		wreg
   246 ;; Tracked objects:
   247 ;;		On entry : 0/0
   248 ;;		On exit  : 0/0
   249 ;;		Unchanged: 0/0
   250 ;; Data sizes:     COMRAM   BANK0   BANK1   BANK2   BANK3   BANK4   BANK5
   251 ;;      Params:         0       0       0       0       0       0       0
   252 ;;      Locals:         0       0       0       0       0       0       0
   253 ;;      Temps:          2       0       0       0       0       0       0
   254 ;;      Totals:         2       0       0       0       0       0       0
   255 ;;Total ram usage:        2 bytes
   256 ;; Hardware stack levels used:    1
   257 ;; This function calls:
   258 ;;		Nothing
   259 ;; This function is called by:
   260 ;;		_chk_isr
   261 ;; This function uses a non-reentrant model
   262 ;;
   263                           
   264                           	psect	text2
   265  00005E                     __ptext2:
   266                           	opt callstack 0
   267  00005E                     _AD_ISR:
   268                           	opt callstack 0
   269  00005E  FFFF               	dw	65535	; assembler added errata NOP
   270  000060                     
   271                           ;main.c: 97:     PORTC = ADRESL;
   272  000060  CFC3 FF82          	movff	4035,3970	;volatile
   273                           
   274                           ;main.c: 98:     PORTD = ADRESH;
   275  000064  CFC4 FF83          	movff	4036,3971	;volatile
   276  000068                     
   277                           ;main.c: 99:     _delay((unsigned long)((250)*(4000000/4000.0)));
   278  000068  0E01               	movlw	1
   279  00006A  6E02               	movwf	(??_AD_ISR+1)^0,c
   280  00006C  0EF4               	movlw	244
   281  00006E  6E01               	movwf	??_AD_ISR^0,c
   282  000070  0EA8               	movlw	168
   283  000072                     i2u3_47:
   284  000072  FFFF               	dw	65535	; errata NOP
   285  000074  2EE8               	decfsz	wreg,f,c
   286  000076  D7FD               	bra	i2u3_47
   287  000078  2E01               	decfsz	??_AD_ISR^0,f,c
   288  00007A  D7FB               	bra	i2u3_47
   289  00007C  2E02               	decfsz	(??_AD_ISR+1)^0,f,c
   290  00007E  D7F9               	bra	i2u3_47
   291  000080  D000               	nop2	
   292  000082                     
   293                           ;main.c: 100:     PIR1bits.ADIF = 0;
   294  000082  9C9E               	bcf	158,6,c	;volatile
   295  000084  0012               	return		;funcret
   296  000086  FFFF               	dw	65535	; errata NOP
   297  000088                     __end_of_AD_ISR:
   298                           	opt callstack 0
   299  000088  FFFF               	dw	65535	; assembler added errata NOP
   300                           
   301                           	psect	rparam
   302  0000                     
   303                           	psect	temp
   304  000003                     btemp:
   305                           	opt callstack 0
   306  000003                     	ds	1
   307  0000                     int$flags	set	btemp
   308  0000                     wtemp8	set	btemp+1
   309  0000                     ttemp5	set	btemp+1
   310  0000                     ttemp6	set	btemp+4
   311  0000                     ttemp7	set	btemp+8
   312                           tosu	equ	0xFFF
   313                           tosh	equ	0xFFE
   314                           tosl	equ	0xFFD
   315                           stkptr	equ	0xFFC
   316                           pclatu	equ	0xFFB
   317                           pclath	equ	0xFFA
   318                           pcl	equ	0xFF9
   319                           tblptru	equ	0xFF8
   320                           tblptrh	equ	0xFF7
   321                           tblptrl	equ	0xFF6
   322                           tablat	equ	0xFF5
   323                           prodh	equ	0xFF4
   324                           prodl	equ	0xFF3
   325                           indf0	equ	0xFEF
   326                           postinc0	equ	0xFEE
   327                           postdec0	equ	0xFED
   328                           preinc0	equ	0xFEC
   329                           plusw0	equ	0xFEB
   330                           fsr0h	equ	0xFEA
   331                           fsr0l	equ	0xFE9
   332                           wreg	equ	0xFE8
   333                           indf1	equ	0xFE7
   334                           postinc1	equ	0xFE6
   335                           postdec1	equ	0xFE5
   336                           preinc1	equ	0xFE4
   337                           plusw1	equ	0xFE3
   338                           fsr1h	equ	0xFE2
   339                           fsr1l	equ	0xFE1
   340                           bsr	equ	0xFE0
   341                           indf2	equ	0xFDF
   342                           postinc2	equ	0xFDE
   343                           postdec2	equ	0xFDD
   344                           preinc2	equ	0xFDC
   345                           plusw2	equ	0xFDB
   346                           fsr2h	equ	0xFDA
   347                           fsr2l	equ	0xFD9
   348                           status	equ	0xFD8


Data Sizes:
    Strings     0
    Constant    0
    Data        0
    BSS         0
    Persistent  0
    Stack       0

Auto Spaces:
    Space          Size  Autos    Used
    COMRAM           94      2       2
    BANK0           160      0       0
    BANK1           256      0       0
    BANK2           256      0       0
    BANK3           256      0       0
    BANK4           256      0       0
    BANK5           256      0       0

Pointer List with Targets:

    None.

Critical Paths under _main in COMRAM

    None.

Critical Paths under _chk_isr in COMRAM

    _chk_isr->_AD_ISR

Critical Paths under _main in BANK0

    None.

Critical Paths under _chk_isr in BANK0

    None.

Critical Paths under _main in BANK1

    None.

Critical Paths under _chk_isr in BANK1

    None.

Critical Paths under _main in BANK2

    None.

Critical Paths under _chk_isr in BANK2

    None.

Critical Paths under _main in BANK3

    None.

Critical Paths under _chk_isr in BANK3

    None.

Critical Paths under _main in BANK4

    None.

Critical Paths under _chk_isr in BANK4

    None.

Critical Paths under _main in BANK5

    None.

Critical Paths under _chk_isr in BANK5

    None.

Call Graph Tables:

 ---------------------------------------------------------------------------------
 (Depth) Function   	        Calls       Base Space   Used Autos Params    Refs
 ---------------------------------------------------------------------------------
 (0) _main                                                 0     0      0       0
 ---------------------------------------------------------------------------------
 Estimated maximum stack depth 0
 ---------------------------------------------------------------------------------
 (Depth) Function   	        Calls       Base Space   Used Autos Params    Refs
 ---------------------------------------------------------------------------------
 (1) _chk_isr                                              0     0      0       0
                             _AD_ISR
 ---------------------------------------------------------------------------------
 (2) _AD_ISR                                               2     2      0       0
                                              0 COMRAM     2     2      0
 ---------------------------------------------------------------------------------
 Estimated maximum stack depth 2
 ---------------------------------------------------------------------------------

 Call Graph Graphs:

 _main (ROOT)

 _chk_isr (ROOT)
   _AD_ISR

 Address spaces:
Name               Size   Autos  Total    Cost      Usage
BITCOMRAM           5E      0       0       0        0.0%
EEDATA             100      0       0       0        0.0%
NULL                 0      0       0       0        0.0%
CODE                 0      0       0       0        0.0%
COMRAM              5E      2       2       1        2.1%
STACK                0      0       0       2        0.0%
BITBANK0            A0      0       0       3        0.0%
BANK0               A0      0       0       4        0.0%
BITBANK1           100      0       0       5        0.0%
BANK1              100      0       0       6        0.0%
BITBANK2           100      0       0       7        0.0%
BANK2              100      0       0       8        0.0%
ABS                  0      0       0       9        0.0%
BITBANK3           100      0       0      10        0.0%
BANK3              100      0       0      11        0.0%
BITBANK4           100      0       0      12        0.0%
BANK4              100      0       0      13        0.0%
BITBANK5           100      0       0      14        0.0%
BANK5              100      0       0      15        0.0%
BIGRAM             5FF      0       0      16        0.0%
DATA                 0      0       0      17        0.0%
BITSFR_1             0      0       0     200        0.0%
SFR_1                0      0       0     200        0.0%
BITSFR               0      0       0     200        0.0%
SFR                  0      0       0     200        0.0%


Microchip Technology PIC18 Macro Assembler V2.10 build 88905656 
Symbol Table                                                                                   Fri May 29 13:45:38 2020

                                                      u27 004E  
                                            __CFG_CP0$OFF 000000  
                                            __CFG_CP1$OFF 000000  
                                            __CFG_CP2$OFF 000000  
                                            __CFG_CP3$OFF 000000  
                                             __CFG_OSC$HS 000000  
                                             __CFG_LVP$ON 000000  
                                                     l741 0046  
                                                     l733 002E  
                                                     l743 0048  
                                                     l735 0038  
                                                     l745 004A  
                                                     l737 0042  
                                                     l747 0054  
                                                     l739 0044  
                                            __CFG_CPB$OFF 000000  
                                            __CFG_CPD$OFF 000000  
                                            __CFG_BOR$OFF 000000  
                                            __CFG_BORV$25 000000  
                                                     wreg 000FE8  
                                            __CFG_WDT$OFF 000000  
                                                    i2l36 0022  
                                                    i2l47 0084  
                                            __CFG_STVR$ON 000000  
                                                    _main 002E  
                                                    btemp 0003  
                                                    start 002A  
                                            ___param_bank 000000  
                                           __CFG_OSCS$OFF 000000  
                                                   ?_main 0001  
                                                   i2l723 0060  
                                                   i2l731 001E  
                                                   i2l725 0068  
                                                   i2l727 0082  
                                                   i2l729 000C  
                                                   _PORTC 000F82  
                                                   _PORTD 000F83  
                                                   _TRISC 000F94  
                                                   _TRISD 000F95  
                                           __CFG_PWRT$OFF 000000  
                                         __end_of_chk_isr 002A  
                                           __CFG_WRT0$OFF 000000  
                                           __CFG_WRT1$OFF 000000  
                                           __CFG_WRT2$OFF 000000  
                                           __CFG_WRT3$OFF 000000  
                                          __CFG_EBTR0$OFF 000000  
                                          __CFG_EBTR1$OFF 000000  
                                          __CFG_EBTR2$OFF 000000  
                                          __CFG_EBTR3$OFF 000000  
                                           __CFG_WRTB$OFF 000000  
                                           __CFG_WRTC$OFF 000000  
                                           __CFG_WRTD$OFF 000000  
                                          __CFG_EBTRB$OFF 000000  
                                                   ttemp5 0004  
                                                   ttemp6 0007  
                                                   ttemp7 000B  
                                                   wtemp8 0004  
                                         __initialization 008A  
                                            __end_of_main 005E  
                                                  ??_main 0003  
                                           __activetblptr 000000  
                                                  _ADCON0 000FC2  
                                                  _ADCON1 000FC1  
                                                  _ADRESH 000FC4  
                                                  _ADRESL 000FC3  
                                                  _AD_ISR 005E  
                                          __CFG_WDTPS$128 000000  
                                                  i2u1_40 001C  
                                                  i2u1_41 0016  
                                                  i2u3_47 0072  
                                               ??_chk_isr 0003  
                                              __accesstop 0060  
                                 __end_of__initialization 008A  
                                           ___rparam_used 000001  
                                          __pcstackCOMRAM 0001  
                                                 ?_AD_ISR 0001  
                                         __size_of_AD_ISR 002A  
                                                 __Hparam 0000  
                                                 __Lparam 0000  
                                                 __pcinit 008A  
                                                 _chk_isr 0008  
                                                 __ramtop 0600  
                                                 __ptext0 002E  
                                                 __ptext2 005E  
                                    end_of_initialization 008A  
                                               _TRISAbits 000F92  
                                          __end_of_AD_ISR 0088  
                                     start_initialization 008A  
                                                ??_AD_ISR 0001  
                                               __pintcode 0008  
                                                ?_chk_isr 0001  
                                                _PIE1bits 000F9D  
                                                _PIR1bits 000F9E  
                                              _ADCON0bits 000FC2  
                                                __Hrparam 0000  
                                                __Lrparam 0000  
                                        __size_of_chk_isr 0022  
                                           __size_of_main 0030  
                                                int$flags 0003  
                                              _INTCONbits 000FF2  
                                                intlevel2 0094  
