Microchip MPLAB XC8 Compiler V2.10 ()

Linker command line:

-W-3 --edf=C:\Program Files (x86)\Microchip\xc8\v2.10\pic\dat\en_msgs.txt \
  -cs -h+dist/default/production\LM35_Interfacing.X.production.sym \
  --cmf=dist/default/production\LM35_Interfacing.X.production.cmf -z \
  -Q18F458 -oC:\Users\HASITH~1\AppData\Local\Temp\sau0.2 \
  --defsym=__MPLAB_BUILD=1 \
  -Mdist/default/production/LM35_Interfacing.X.production.map -E1 -ver=XC8 \
  --acfsm=1493 -ASTACK=060h-05FFh -pstack=STACK -ACODE=00h-03FFFhx2 \
  -ACONST=00h-07FFFh -ASMALLCONST=0600h-06FFhx122 \
  -AMEDIUMCONST=0600h-07FFFh -ACOMRAM=01h-05Fh -AABS1=00h-05FFh \
  -ABIGRAM=01h-05FFh -ARAM=060h-0FFh,0100h-01FFhx5 -ABANK0=060h-0FFh \
  -ABANK1=0100h-01FFh -ABANK2=0200h-02FFh -ABANK3=0300h-03FFh \
  -ABANK4=0400h-04FFh -ABANK5=0500h-05FFh -ASFR=0F00h-0F5Fh,0F60h-0FFFh \
  -preset_vec=00h,intcode=08h,intcodelo,powerup,init -pramtop=0600h \
  -psmallconst=SMALLCONST -pmediumconst=MEDIUMCONST -pconst=CONST \
  -AFARRAM=00h-00h -ACONFIG=0300000h-030000Dh -pconfig=CONFIG \
  -AIDLOC=0200000h-0200007h -pidloc=IDLOC -AEEDATA=0F00000h-0F000FFh \
  -peeprom_data=EEDATA \
  -prdata=COMRAM,nvrram=COMRAM,nvbit=COMRAM,rbss=COMRAM,rbit=COMRAM \
  -pfarbss=FARRAM,fardata=FARRAM,nvFARRAM=FARRAM \
  -pintsave_regs=BIGRAM,bigbss=BIGRAM,bigdata=BIGRAM -pbss=RAM \
  -pidata=CODE,irdata=CODE,ibigdata=CODE,ifardata=CODE -prparam=COMRAM \
  C:\Users\HASITH~1\AppData\Local\Temp\sau0.o \
  dist/default/production\LM35_Interfacing.X.production.o 

Object code version is 3.11

Machine type is 18F458

Call graph: (short form)




                Name                               Link     Load   Length Selector   Space Scale
C:\Users\HASITH~1\AppData\Local\Temp\sau0.o
                text                                162      162        2        4       0
                init                                 2A       2A        4        4       0
                reset_vec                             0        0        6        0       0
                idloc                            200000   200000        8   200000       0
                config                           300000   300000        E   300000       0
dist/default/production\LM35_Interfacing.X.production.o
                intcode                               8        8       22        4       0
                temp                                 12       12        1        1       1
                text3                                2E       2E       90        4       0
                text2                                BE       BE       5C        4       0
                text0                               11A      11A       32        4       0
                cstackCOMRAM                          1        1        B        1       1
                bssCOMRAM                             C        C        6        1       1
                cinit                               14C      14C       16        4       0

TOTAL           Name                               Link     Load   Length     Space
        CLASS   STACK          

        CLASS   CODE           
                intcode                               8        8       22         0
                text                                162      162        2         0
                init                                 2A       2A        4         0
                reset_vec                             0        0        6         0
                text3                                2E       2E       90         0
                text2                                BE       BE       5C         0
                text0                               11A      11A       32         0
                cinit                               14C      14C       16         0

        CLASS   CONST          

        CLASS   SMALLCONST     

        CLASS   MEDIUMCONST    

        CLASS   COMRAM         
                temp                                 12       12        1         1
                cstackCOMRAM                          1        1        B         1
                bssCOMRAM                             C        C        6         1

        CLASS   ABS1           

        CLASS   BIGRAM         

        CLASS   RAM            

        CLASS   BANK0          

        CLASS   BANK1          

        CLASS   BANK2          

        CLASS   BANK3          

        CLASS   BANK4          

        CLASS   BANK5          

        CLASS   SFR            

        CLASS   FARRAM         

        CLASS   CONFIG         
                config                           300000   300000        E         0

        CLASS   IDLOC          
                idloc                            200000   200000        8         0

        CLASS   EEDATA         



SEGMENTS        Name                           Load    Length   Top    Selector   Space  Class

                reset_vec                      000000  000006  000006         0       0  CODE    
                cstackCOMRAM                   000001  000012  000013         1       1  COMRAM  
                intcode                        000008  00015C  000164         4       0  CODE    
                idloc                          200000  000008  200008    200000       0  IDLOC   
                config                         300000  00000E  30000E    300000       0  CONFIG  


UNUSED ADDRESS RANGES

        Name                Unused          Largest block    Delta
        BANK0            000060-0000FF               A0
        BANK1            000100-0001FF              100
        BANK2            000200-0002FF              100
        BANK3            000300-0003FF              100
        BANK4            000400-0004FF              100
        BANK5            000500-0005FF              100
        BIGRAM           000013-0005FF              5ED
        CODE             000006-000007                2
                         000164-007FFF             3E9C
        COMRAM           000013-00005F               4D
        CONST            000006-000007                2
                         000164-007FFF             7E9C
        EEDATA           F00000-F000FF              100
        MEDIUMCONST      000600-007FFF             7A00
        RAM              000060-0005FF              100
        SFR              000F00-000FFF               60
        SMALLCONST       000600-007FFF              100
        STACK            000060-0005FF              5A0

                                  Symbol Table

?___lwdiv                                                              cstackCOMRAM 000001
AD_ISR@t_Bin_Temp                                                      cstackCOMRAM 00000A
_ADCON0                                                                (abs)        000FC2
_ADCON0bits                                                            (abs)        000FC2
_ADCON1                                                                (abs)        000FC1
_ADRESH                                                                (abs)        000FC4
_ADRESL                                                                (abs)        000FC3
_AD_ISR                                                                text2        0000BE
_Bin_Temp                                                              bssCOMRAM    00000C
_H_Byte                                                                bssCOMRAM    00000E
_INTCONbits                                                            (abs)        000FF2
_L_byte                                                                bssCOMRAM    000010
_PIE1bits                                                              (abs)        000F9D
_PIR1bits                                                              (abs)        000F9E
_TRISAbits                                                             (abs)        000F92
_TRISC                                                                 (abs)        000F94
_TRISD                                                                 (abs)        000F95
__CFG_BOR$OFF                                                          (abs)        000000
__CFG_BORV$25                                                          (abs)        000000
__CFG_CP0$OFF                                                          (abs)        000000
__CFG_CP1$OFF                                                          (abs)        000000
__CFG_CP2$OFF                                                          (abs)        000000
__CFG_CP3$OFF                                                          (abs)        000000
__CFG_CPB$OFF                                                          (abs)        000000
__CFG_CPD$OFF                                                          (abs)        000000
__CFG_EBTR0$OFF                                                        (abs)        000000
__CFG_EBTR1$OFF                                                        (abs)        000000
__CFG_EBTR2$OFF                                                        (abs)        000000
__CFG_EBTR3$OFF                                                        (abs)        000000
__CFG_EBTRB$OFF                                                        (abs)        000000
__CFG_LVP$ON                                                           (abs)        000000
__CFG_OSC$HS                                                           (abs)        000000
__CFG_OSCS$OFF                                                         (abs)        000000
__CFG_PWRT$OFF                                                         (abs)        000000
__CFG_STVR$ON                                                          (abs)        000000
__CFG_WDT$OFF                                                          (abs)        000000
__CFG_WDTPS$128                                                        (abs)        000000
__CFG_WRT0$OFF                                                         (abs)        000000
__CFG_WRT1$OFF                                                         (abs)        000000
__CFG_WRT2$OFF                                                         (abs)        000000
__CFG_WRT3$OFF                                                         (abs)        000000
__CFG_WRTB$OFF                                                         (abs)        000000
__CFG_WRTC$OFF                                                         (abs)        000000
__CFG_WRTD$OFF                                                         (abs)        000000
__HRAM                                                                 (abs)        000000
__Habs1                                                                abs1         000000
__Hbank0                                                               bank0        000000
__Hbank1                                                               bank1        000000
__Hbank2                                                               bank2        000000
__Hbank3                                                               bank3        000000
__Hbank4                                                               bank4        000000
__Hbank5                                                               bank5        000000
__Hbigbss                                                              bigbss       000000
__Hbigdata                                                             bigdata      000000
__Hbigram                                                              bigram       000000
__Hbss                                                                 bss          000000
__HbssCOMRAM                                                           bssCOMRAM    000000
__Hcinit                                                               cinit        000000
__Hclrtext                                                             clrtext      000000
__Hcomram                                                              comram       000000
__Hconfig                                                              config       30000E
__Hconst                                                               const        000000
__HcstackCOMRAM                                                        cstackCOMRAM 000000
__Hdata                                                                data         000000
__Heeprom_data                                                         eeprom_data  000000
__Hfarbss                                                              farbss       000000
__Hfardata                                                             fardata      000000
__Hibigdata                                                            ibigdata     000000
__Hidata                                                               idata        000000
__Hidloc                                                               idloc        200008
__Hifardata                                                            ifardata     000000
__Hinit                                                                init         00002E
__Hintcode                                                             intcode      00002A
__Hintcode_body                                                        intcode_body 000000
__Hintcodelo                                                           intcodelo    00002A
__Hintentry                                                            intentry     000000
__Hintret                                                              intret       000000
__Hintsave_regs                                                        intsave_regs 000000
__Hirdata                                                              irdata       000000
__Hmediumconst                                                         mediumconst  000000
__HnvFARRAM                                                            nvFARRAM     000000
__Hnvbit                                                               nvbit        000000
__Hnvrram                                                              nvrram       000000
__Hparam                                                               rparam       000000
__Hpowerup                                                             powerup      00002A
__Hram                                                                 ram          000000
__Hramtop                                                              ramtop       000600
__Hrbit                                                                rbit         000000
__Hrbss                                                                rbss         000000
__Hrdata                                                               rdata        000000
__Hreset_vec                                                           reset_vec    000006
__Hrparam                                                              rparam       000000
__Hsfr                                                                 sfr          000000
__Hsmallconst                                                          smallconst   000000
__Hspace_0                                                             (abs)        30000E
__Hspace_1                                                             (abs)        000013
__Hspace_2                                                             (abs)        000000
__Hstack                                                               stack        000000
__Hstruct                                                              struct       000000
__Htemp                                                                temp         000013
__Htext                                                                text         000000
__Htext0                                                               text0        000000
__Htext2                                                               text2        000000
__Htext3                                                               text3        000000
__LRAM                                                                 (abs)        000001
__Labs1                                                                abs1         000000
__Lbank0                                                               bank0        000000
__Lbank1                                                               bank1        000000
__Lbank2                                                               bank2        000000
__Lbank3                                                               bank3        000000
__Lbank4                                                               bank4        000000
__Lbank5                                                               bank5        000000
__Lbigbss                                                              bigbss       000000
__Lbigdata                                                             bigdata      000000
__Lbigram                                                              bigram       000000
__Lbss                                                                 bss          000000
__LbssCOMRAM                                                           bssCOMRAM    000000
__Lcinit                                                               cinit        000000
__Lclrtext                                                             clrtext      000000
__Lcomram                                                              comram       000000
__Lconfig                                                              config       300000
__Lconst                                                               const        000000
__LcstackCOMRAM                                                        cstackCOMRAM 000000
__Ldata                                                                data         000000
__Leeprom_data                                                         eeprom_data  000000
__Lfarbss                                                              farbss       000000
__Lfardata                                                             fardata      000000
__Libigdata                                                            ibigdata     000000
__Lidata                                                               idata        000000
__Lidloc                                                               idloc        200000
__Lifardata                                                            ifardata     000000
__Linit                                                                init         00002A
__Lintcode                                                             intcode      000008
__Lintcode_body                                                        intcode_body 000000
__Lintcodelo                                                           intcodelo    00002A
__Lintentry                                                            intentry     000000
__Lintret                                                              intret       000000
__Lintsave_regs                                                        intsave_regs 000000
__Lirdata                                                              irdata       000000
__Lmediumconst                                                         mediumconst  000000
__LnvFARRAM                                                            nvFARRAM     000000
__Lnvbit                                                               nvbit        000000
__Lnvrram                                                              nvrram       000000
__Lparam                                                               rparam       000000
__Lpowerup                                                             powerup      00002A
__Lram                                                                 ram          000000
__Lramtop                                                              ramtop       000600
__Lrbit                                                                rbit         000000
__Lrbss                                                                rbss         000000
__Lrdata                                                               rdata        000000
__Lreset_vec                                                           reset_vec    000000
__Lrparam                                                              rparam       000000
__Lsfr                                                                 sfr          000000
__Lsmallconst                                                          smallconst   000000
__Lspace_0                                                             (abs)        000000
__Lspace_1                                                             (abs)        000000
__Lspace_2                                                             (abs)        000000
__Lstack                                                               stack        000000
__Lstruct                                                              struct       000000
__Ltemp                                                                temp         000012
__Ltext                                                                text         000000
__Ltext0                                                               text0        000000
__Ltext2                                                               text2        000000
__Ltext3                                                               text3        000000
__S0                                                                   (abs)        30000E
__S1                                                                   (abs)        000013
__S2                                                                   (abs)        000000
___inthi_sp                                                            stack        000000
___intlo_sp                                                            stack        000000
___lwdiv                                                               text3        00002E
___lwdiv@counter                                                       cstackCOMRAM 000007
___lwdiv@dividend                                                      cstackCOMRAM 000001
___lwdiv@divisor                                                       cstackCOMRAM 000003
___lwdiv@quotient                                                      cstackCOMRAM 000005
___param_bank                                                          (abs)        000000
___rparam_used                                                         (abs)        000001
___sp                                                                  stack        000000
__accesstop                                                            (abs)        000060
__activetblptr                                                         (abs)        000000
__cntErrataNOP_C:\Users\HASITH~1\AppData\Local\Temp\sau0.o             (abs)        000001
__cntErrataNOP_dist/default/production\LM35_Interfacing.X.production.o (abs)        000016
__end_of_AD_ISR                                                        text2        00011A
__end_of___lwdiv                                                       text3        0000BC
__end_of__initialization                                               cinit        000158
__end_of_chk_isr                                                       intcode      00002A
__end_of_main                                                          text0        00014C
__initialization                                                       cinit        00014C
__mediumconst                                                          mediumconst  000000
__pbssCOMRAM                                                           bssCOMRAM    00000C
__pcinit                                                               cinit        00014C
__pcstackCOMRAM                                                        cstackCOMRAM 000001
__pintcode                                                             intcode      000008
__ptext0                                                               text0        00011A
__ptext2                                                               text2        0000BE
__ptext3                                                               text3        00002E
__ramtop                                                               ramtop       000600
__size_of_AD_ISR                                                       (abs)        000000
__size_of___lwdiv                                                      (abs)        000000
__size_of_chk_isr                                                      (abs)        000000
__size_of_main                                                         (abs)        000000
__smallconst                                                           smallconst   000000
_chk_isr                                                               intcode      000008
_main                                                                  text0        00011A
btemp                                                                  temp         000012
end_of_initialization                                                  cinit        000158
int$flags                                                              temp         000012
intlevel0                                                              text         000162
intlevel1                                                              text         000162
intlevel2                                                              text         000162
intlevel3                                                              text         000162
stackhi                                                                (abs)        0005FF
stacklo                                                                (abs)        000060
start                                                                  init         00002A
start_initialization                                                   cinit        00014C
ttemp5                                                                 temp         000013
ttemp6                                                                 temp         000016
ttemp7                                                                 temp         00001A
wtemp8                                                                 temp         000013


FUNCTION INFORMATION:

 *************** function _main *****************
 Defined at:
		line 72 in file "main.c"
 Parameters:    Size  Location     Type
		None
 Auto vars:     Size  Location     Type
		None
 Return value:  Size  Location     Type
                  1    wreg      void 
 Registers used:
		wreg, status,2
 Tracked objects:
		On entry : 
		On exit  : 
		Unchanged: 
 Data sizes:     COMRAM   BANK0   BANK1   BANK2   BANK3   BANK4   BANK5
      Params:         0       0       0       0       0       0       0
      Locals:         0       0       0       0       0       0       0
      Temps:          0       0       0       0       0       0       0
      Totals:         0       0       0       0       0       0       0
Total ram usage:        0 bytes
 Hardware stack levels required when called:    3
 This function calls:
		Nothing
 This function is called by:
		Startup code after reset
 This function uses a non-reentrant model


 *************** function _chk_isr *****************
 Defined at:
		line 67 in file "main.c"
 Parameters:    Size  Location     Type
		None
 Auto vars:     Size  Location     Type
		None
 Return value:  Size  Location     Type
                  1    wreg      void 
 Registers used:
		wreg, status,2, status,0, cstack
 Tracked objects:
		On entry : 
		On exit  : 
		Unchanged: 
 Data sizes:     COMRAM   BANK0   BANK1   BANK2   BANK3   BANK4   BANK5
      Params:         0       0       0       0       0       0       0
      Locals:         0       0       0       0       0       0       0
      Temps:          0       0       0       0       0       0       0
      Totals:         0       0       0       0       0       0       0
Total ram usage:        0 bytes
 Hardware stack levels used:    1
 Hardware stack levels required when called:    2
 This function calls:
		_AD_ISR
 This function is called by:
		Interrupt level 2
 This function uses a non-reentrant model


 *************** function _AD_ISR *****************
 Defined at:
		line 95 in file "main.c"
 Parameters:    Size  Location     Type
		None
 Auto vars:     Size  Location     Type
  t_Bin_Temp      2    9[COMRAM] unsigned int 
 Return value:  Size  Location     Type
                  1    wreg      void 
 Registers used:
		wreg, status,2, status,0, cstack
 Tracked objects:
		On entry : 
		On exit  : 
		Unchanged: 
 Data sizes:     COMRAM   BANK0   BANK1   BANK2   BANK3   BANK4   BANK5
      Params:         0       0       0       0       0       0       0
      Locals:         2       0       0       0       0       0       0
      Temps:          2       0       0       0       0       0       0
      Totals:         4       0       0       0       0       0       0
Total ram usage:        4 bytes
 Hardware stack levels used:    1
 Hardware stack levels required when called:    1
 This function calls:
		___lwdiv
 This function is called by:
		_chk_isr
 This function uses a non-reentrant model


 *************** function ___lwdiv *****************
 Defined at:
		line 7 in file "C:\Program Files (x86)\Microchip\xc8\v2.10\pic\sources\c99\common\lwdiv.c"
 Parameters:    Size  Location     Type
  dividend        2    0[COMRAM] unsigned int 
  divisor         2    2[COMRAM] unsigned int 
 Auto vars:     Size  Location     Type
  quotient        2    4[COMRAM] unsigned int 
  counter         1    6[COMRAM] unsigned char 
 Return value:  Size  Location     Type
                  2    0[COMRAM] unsigned int 
 Registers used:
		wreg, status,2, status,0
 Tracked objects:
		On entry : 
		On exit  : 
		Unchanged: 
 Data sizes:     COMRAM   BANK0   BANK1   BANK2   BANK3   BANK4   BANK5
      Params:         4       0       0       0       0       0       0
      Locals:         3       0       0       0       0       0       0
      Temps:          0       0       0       0       0       0       0
      Totals:         7       0       0       0       0       0       0
Total ram usage:        7 bytes
 Hardware stack levels used:    1
 This function calls:
		Nothing
 This function is called by:
		_AD_ISR
 This function uses a non-reentrant model



MODULE INFORMATION

Module		Function		Class		Link	Load	Size
C:\Program Files (x86)\Microchip\xc8\v2.10\pic\sources\c99\common\lwdiv.c
		___lwdiv       		CODE           	002E	0000	143

C:\Program Files (x86)\Microchip\xc8\v2.10\pic\sources\c99\common\lwdiv.c estimated size: 143

shared
		__initialization		CODE           	014C	0000	13

shared estimated size: 13

main.c
		_AD_ISR        		CODE           	00BE	0000	93
		_chk_isr       		CODE           	0008	0000	35
		_main          		CODE           	011A	0000	51

main.c estimated size: 179

